{
  "_format": "hh-sol-artifact-1",
  "contractName": "MockDelegationManager",
  "sourceName": "contracts/mocks/MockDelegationManager.sol",
  "abi": [
    {
      "anonymous": false,
      "inputs": [
        {
          "indexed": true,
          "internalType": "address",
          "name": "operator",
          "type": "address"
        },
        {
          "indexed": true,
          "internalType": "address",
          "name": "delegator",
          "type": "address"
        }
      ],
      "name": "DelegationApproved",
      "type": "event"
    },
    {
      "anonymous": false,
      "inputs": [
        {
          "indexed": true,
          "internalType": "address",
          "name": "operator",
          "type": "address"
        },
        {
          "indexed": true,
          "internalType": "address",
          "name": "delegator",
          "type": "address"
        }
      ],
      "name": "DelegationRevoked",
      "type": "event"
    },
    {
      "anonymous": false,
      "inputs": [
        {
          "indexed": true,
          "internalType": "address",
          "name": "operator",
          "type": "address"
        }
      ],
      "name": "OperatorRegistered",
      "type": "event"
    },
    {
      "anonymous": false,
      "inputs": [
        {
          "indexed": true,
          "internalType": "address",
          "name": "previousOwner",
          "type": "address"
        },
        {
          "indexed": true,
          "internalType": "address",
          "name": "newOwner",
          "type": "address"
        }
      ],
      "name": "OwnershipTransferred",
      "type": "event"
    },
    {
      "inputs": [
        {
          "internalType": "address",
          "name": "operator",
          "type": "address"
        }
      ],
      "name": "approveOperator",
      "outputs": [],
      "stateMutability": "nonpayable",
      "type": "function"
    },
    {
      "inputs": [
        {
          "internalType": "address",
          "name": "delegator",
          "type": "address"
        },
        {
          "internalType": "address",
          "name": "operator",
          "type": "address"
        }
      ],
      "name": "isDelegated",
      "outputs": [
        {
          "internalType": "bool",
          "name": "",
          "type": "bool"
        }
      ],
      "stateMutability": "view",
      "type": "function"
    },
    {
      "inputs": [
        {
          "internalType": "address",
          "name": "",
          "type": "address"
        }
      ],
      "name": "isOperator",
      "outputs": [
        {
          "internalType": "bool",
          "name": "",
          "type": "bool"
        }
      ],
      "stateMutability": "view",
      "type": "function"
    },
    {
      "inputs": [
        {
          "internalType": "address",
          "name": "operator",
          "type": "address"
        }
      ],
      "name": "isOperatorRegistered",
      "outputs": [
        {
          "internalType": "bool",
          "name": "",
          "type": "bool"
        }
      ],
      "stateMutability": "view",
      "type": "function"
    },
    {
      "inputs": [
        {
          "internalType": "address",
          "name": "",
          "type": "address"
        },
        {
          "internalType": "address",
          "name": "",
          "type": "address"
        }
      ],
      "name": "operatorDelegations",
      "outputs": [
        {
          "internalType": "bool",
          "name": "",
          "type": "bool"
        }
      ],
      "stateMutability": "view",
      "type": "function"
    },
    {
      "inputs": [],
      "name": "owner",
      "outputs": [
        {
          "internalType": "address",
          "name": "",
          "type": "address"
        }
      ],
      "stateMutability": "view",
      "type": "function"
    },
    {
      "inputs": [],
      "name": "registerAsOperator",
      "outputs": [],
      "stateMutability": "nonpayable",
      "type": "function"
    },
    {
      "inputs": [],
      "name": "renounceOwnership",
      "outputs": [],
      "stateMutability": "nonpayable",
      "type": "function"
    },
    {
      "inputs": [
        {
          "internalType": "address",
          "name": "operator",
          "type": "address"
        }
      ],
      "name": "revokeOperator",
      "outputs": [],
      "stateMutability": "nonpayable",
      "type": "function"
    },
    {
      "inputs": [
        {
          "internalType": "address",
          "name": "newOwner",
          "type": "address"
        }
      ],
      "name": "transferOwnership",
      "outputs": [],
      "stateMutability": "nonpayable",
      "type": "function"
    }
  ],
  "bytecode": "0x608060405234801561001057600080fd5b5061001a3361001f565b61006f565b600080546001600160a01b038381166001600160a01b0319831681178455604051919092169283917f8be0079c531659141344cd1fd0a4f28419497f9722a3daafe3b4186f6b6457e09190a35050565b6105768061007e6000396000f3fe608060405234801561001057600080fd5b506004361061009e5760003560e01c8063715018a611610066578063715018a6146101525780638da5cb5b1461015a578063f2fde38b14610175578063fad8b32a14610188578063ff210c361461019b57600080fd5b8063242cae9f146100a35780632a34ade8146100b857806340732bf6146100c05780636b1906f8146101035780636d70f7ae1461012f575b600080fd5b6100b66100b13660046104eb565b6101d8565b005b6100b66102a0565b6100ee6100ce36600461050d565b600160209081526000928352604080842090915290825290205460ff1681565b60405190151581526020015b60405180910390f35b6100ee6101113660046104eb565b6001600160a01b031660009081526002602052604090205460ff1690565b6100ee61013d3660046104eb565b60026020526000908152604090205460ff1681565b6100b6610342565b6000546040516001600160a01b0390911681526020016100fa565b6100b66101833660046104eb565b610356565b6100b66101963660046104eb565b6103cf565b6100ee6101a936600461050d565b6001600160a01b0380821660009081526001602090815260408083209386168352929052205460ff1692915050565b6001600160a01b03811660009081526002602052604090205460ff166102455760405162461bcd60e51b815260206004820152601960248201527f4e6f7420612072656769737465726564206f70657261746f720000000000000060448201526064015b60405180910390fd5b6001600160a01b0381166000818152600160208181526040808420338086529252808420805460ff191690931790925590519092917f512a2be4a9ac9a02aeca539b0e9fb93195f1bcba4992b365342f0ecdf621323e91a350565b3360009081526002602052604090205460ff16156103005760405162461bcd60e51b815260206004820152601e60248201527f416c72656164792072656769737465726564206173206f70657261746f720000604482015260640161023c565b33600081815260026020526040808220805460ff19166001179055517f4d0eb1f4bac8744fd2be119845e23b3befc88094b42bcda1204c65694a00f9e59190a2565b61034a610425565b610354600061047f565b565b61035e610425565b6001600160a01b0381166103c35760405162461bcd60e51b815260206004820152602660248201527f4f776e61626c653a206e6577206f776e657220697320746865207a65726f206160448201526564647265737360d01b606482015260840161023c565b6103cc8161047f565b50565b6001600160a01b0381166000818152600160209081526040808320338085529252808320805460ff19169055519092917f6f0412fa95f7f48ec7dc7631b382833d8eae9cf4082e5e859b94d091a4a846d491a350565b6000546001600160a01b031633146103545760405162461bcd60e51b815260206004820181905260248201527f4f776e61626c653a2063616c6c6572206973206e6f7420746865206f776e6572604482015260640161023c565b600080546001600160a01b038381166001600160a01b0319831681178455604051919092169283917f8be0079c531659141344cd1fd0a4f28419497f9722a3daafe3b4186f6b6457e09190a35050565b80356001600160a01b03811681146104e657600080fd5b919050565b6000602082840312156104fd57600080fd5b610506826104cf565b9392505050565b6000806040838503121561052057600080fd5b610529836104cf565b9150610537602084016104cf565b9050925092905056fea2646970667358221220e563bbd324ec51bb562b623db4b96f8606210ef4acd92d71da19b54af715164164736f6c63430008180033",
  "linkReferences": {},
  "deployedLinkReferences": {}
}