{
  "_format": "hh-sol-artifact-1",
  "contractName": "MockStrategy",
  "sourceName": "contracts/mocks/MockStrategy.sol",
  "abi": [
    {
      "inputs": [
        {
          "internalType": "address",
          "name": "_stakingToken",
          "type": "address"
        }
      ],
      "stateMutability": "nonpayable",
      "type": "constructor"
    },
    {
      "inputs": [
        {
          "internalType": "uint256",
          "name": "amount",
          "type": "uint256"
        }
      ],
      "name": "deposit",
      "outputs": [],
      "stateMutability": "nonpayable",
      "type": "function"
    },
    {
      "inputs": [
        {
          "internalType": "address",
          "name": "account",
          "type": "address"
        }
      ],
      "name": "shares",
      "outputs": [
        {
          "internalType": "uint256",
          "name": "",
          "type": "uint256"
        }
      ],
      "stateMutability": "view",
      "type": "function"
    },
    {
      "inputs": [],
      "name": "stakingToken",
      "outputs": [
        {
          "internalType": "contract IERC20",
          "name": "",
          "type": "address"
        }
      ],
      "stateMutability": "view",
      "type": "function"
    },
    {
      "inputs": [],
      "name": "totalShares",
      "outputs": [
        {
          "internalType": "uint256",
          "name": "",
          "type": "uint256"
        }
      ],
      "stateMutability": "view",
      "type": "function"
    },
    {
      "inputs": [
        {
          "internalType": "uint256",
          "name": "amount",
          "type": "uint256"
        }
      ],
      "name": "withdraw",
      "outputs": [],
      "stateMutability": "nonpayable",
      "type": "function"
    }
  ],
  "bytecode": "0x60a060405234801561001057600080fd5b506040516107dd3803806107dd83398101604081905261002f9161009a565b6001600160a01b0381166100895760405162461bcd60e51b815260206004820152601560248201527f496e76616c696420746f6b656e20616464726573730000000000000000000000604482015260640160405180910390fd5b6001600160a01b03166080526100ca565b6000602082840312156100ac57600080fd5b81516001600160a01b03811681146100c357600080fd5b9392505050565b6080516106eb6100f260003960008181608d015281816101a8015261022201526106eb6000f3fe608060405234801561001057600080fd5b50600436106100575760003560e01c80632e1a7d4d1461005c5780633a98ef391461007157806372f702f314610088578063b6b55f25146100c7578063ce7c2ac2146100da575b600080fd5b61006f61006a366004610595565b610103565b005b6001545b6040519081526020015b60405180910390f35b6100af7f000000000000000000000000000000000000000000000000000000000000000081565b6040516001600160a01b03909116815260200161007f565b61006f6100d5366004610595565b6101d2565b6100756100e83660046105ae565b6001600160a01b031660009081526020819052604090205490565b3360009081526020819052604090205481111561015d5760405162461bcd60e51b8152602060048201526013602482015272496e73756666696369656e742073686172657360681b60448201526064015b60405180910390fd5b336000908152602081905260408120805483929061017c9084906105f4565b92505081905550806001600082825461019591906105f4565b909155506101cf90506001600160a01b037f000000000000000000000000000000000000000000000000000000000000000016338361028a565b50565b600081116102155760405162461bcd60e51b815260206004820152601060248201526f043616e6e6f74206465706f73697420360841b6044820152606401610154565b61024a6001600160a01b037f0000000000000000000000000000000000000000000000000000000000000000163330846102f2565b336000908152602081905260408120805483929061026990849061060d565b925050819055508060016000828254610282919061060d565b909155505050565b6040516001600160a01b0383166024820152604481018290526102ed90849063a9059cbb60e01b906064015b60408051601f198184030181529190526020810180516001600160e01b03166001600160e01b031990931692909217909152610330565b505050565b6040516001600160a01b038085166024830152831660448201526064810182905261032a9085906323b872dd60e01b906084016102b6565b50505050565b6000610385826040518060400160405280602081526020017f5361666545524332303a206c6f772d6c6576656c2063616c6c206661696c6564815250856001600160a01b03166104059092919063ffffffff16565b90508051600014806103a65750808060200190518101906103a69190610620565b6102ed5760405162461bcd60e51b815260206004820152602a60248201527f5361666545524332303a204552433230206f7065726174696f6e20646964206e6044820152691bdd081cdd58d8d9595960b21b6064820152608401610154565b6060610414848460008561041c565b949350505050565b60608247101561047d5760405162461bcd60e51b815260206004820152602660248201527f416464726573733a20696e73756666696369656e742062616c616e636520666f6044820152651c8818d85b1b60d21b6064820152608401610154565b600080866001600160a01b031685876040516104999190610666565b60006040518083038185875af1925050503d80600081146104d6576040519150601f19603f3d011682016040523d82523d6000602084013e6104db565b606091505b50915091506104ec878383876104f7565b979650505050505050565b6060831561056657825160000361055f576001600160a01b0385163b61055f5760405162461bcd60e51b815260206004820152601d60248201527f416464726573733a2063616c6c20746f206e6f6e2d636f6e74726163740000006044820152606401610154565b5081610414565b610414838381511561057b5781518083602001fd5b8060405162461bcd60e51b81526004016101549190610682565b6000602082840312156105a757600080fd5b5035919050565b6000602082840312156105c057600080fd5b81356001600160a01b03811681146105d757600080fd5b9392505050565b634e487b7160e01b600052601160045260246000fd5b81810381811115610607576106076105de565b92915050565b80820180821115610607576106076105de565b60006020828403121561063257600080fd5b815180151581146105d757600080fd5b60005b8381101561065d578181015183820152602001610645565b50506000910152565b60008251610678818460208701610642565b9190910192915050565b60208152600082518060208401526106a1816040850160208701610642565b601f01601f1916919091016040019291505056fea26469706673582212207ec8b37618bb4558fc7d3d14f21db1d1a7e0add0825cc45e710c3142655ab18764736f6c63430008180033",
  "linkReferences": {},
  "deployedLinkReferences": {}
}