{
  "_format": "hh-sol-artifact-1",
  "contractName": "SDToken",
  "sourceName": "contracts/SDToken.sol",
  "abi": [
    {
      "inputs": [],
      "stateMutability": "nonpayable",
      "type": "constructor"
    },
    {
      "anonymous": false,
      "inputs": [
        {
          "indexed": true,
          "internalType": "address",
          "name": "owner",
          "type": "address"
        },
        {
          "indexed": true,
          "internalType": "address",
          "name": "spender",
          "type": "address"
        },
        {
          "indexed": false,
          "internalType": "uint256",
          "name": "value",
          "type": "uint256"
        }
      ],
      "name": "Approval",
      "type": "event"
    },
    {
      "anonymous": false,
      "inputs": [
        {
          "indexed": false,
          "internalType": "uint256",
          "name": "amount",
          "type": "uint256"
        },
        {
          "indexed": false,
          "internalType": "uint256",
          "name": "timestamp",
          "type": "uint256"
        }
      ],
      "name": "ArtistWithdrawal",
      "type": "event"
    },
    {
      "anonymous": false,
      "inputs": [
        {
          "indexed": true,
          "internalType": "address",
          "name": "newManager",
          "type": "address"
        }
      ],
      "name": "DelegationManagerUpdated",
      "type": "event"
    },
    {
      "anonymous": false,
      "inputs": [
        {
          "indexed": true,
          "internalType": "address",
          "name": "newStrategy",
          "type": "address"
        }
      ],
      "name": "EigenLayerStrategyUpdated",
      "type": "event"
    },
    {
      "anonymous": false,
      "inputs": [
        {
          "indexed": true,
          "internalType": "uint256",
          "name": "monthIndex",
          "type": "uint256"
        },
        {
          "indexed": false,
          "internalType": "uint256",
          "name": "totalStreams",
          "type": "uint256"
        },
        {
          "indexed": false,
          "internalType": "uint256",
          "name": "totalRoyalties",
          "type": "uint256"
        }
      ],
      "name": "MonthlyMetricsSnapshot",
      "type": "event"
    },
    {
      "anonymous": false,
      "inputs": [
        {
          "indexed": true,
          "internalType": "address",
          "name": "previousOwner",
          "type": "address"
        },
        {
          "indexed": true,
          "internalType": "address",
          "name": "newOwner",
          "type": "address"
        }
      ],
      "name": "OwnershipTransferred",
      "type": "event"
    },
    {
      "anonymous": false,
      "inputs": [
        {
          "indexed": false,
          "internalType": "address",
          "name": "account",
          "type": "address"
        }
      ],
      "name": "Paused",
      "type": "event"
    },
    {
      "anonymous": false,
      "inputs": [
        {
          "indexed": false,
          "internalType": "uint256",
          "name": "artistAmount",
          "type": "uint256"
        },
        {
          "indexed": false,
          "internalType": "uint256",
          "name": "stakersAmount",
          "type": "uint256"
        },
        {
          "indexed": false,
          "internalType": "uint256",
          "name": "monthIndex",
          "type": "uint256"
        }
      ],
      "name": "RoyaltiesDistributed",
      "type": "event"
    },
    {
      "anonymous": false,
      "inputs": [
        {
          "indexed": true,
          "internalType": "address",
          "name": "to",
          "type": "address"
        },
        {
          "indexed": false,
          "internalType": "uint256",
          "name": "amount",
          "type": "uint256"
        }
      ],
      "name": "RoyaltiesWithdrawn",
      "type": "event"
    },
    {
      "anonymous": false,
      "inputs": [
        {
          "indexed": false,
          "internalType": "uint256",
          "name": "id",
          "type": "uint256"
        }
      ],
      "name": "Snapshot",
      "type": "event"
    },
    {
      "anonymous": false,
      "inputs": [
        {
          "indexed": true,
          "internalType": "address",
          "name": "staker",
          "type": "address"
        },
        {
          "indexed": false,
          "internalType": "uint256",
          "name": "amount",
          "type": "uint256"
        }
      ],
      "name": "Staked",
      "type": "event"
    },
    {
      "anonymous": false,
      "inputs": [
        {
          "indexed": true,
          "internalType": "address",
          "name": "from",
          "type": "address"
        },
        {
          "indexed": false,
          "internalType": "uint256",
          "name": "amount",
          "type": "uint256"
        },
        {
          "indexed": false,
          "internalType": "uint256",
          "name": "streamCount",
          "type": "uint256"
        }
      ],
      "name": "StreamingFundingRoyaltiesDeposited",
      "type": "event"
    },
    {
      "anonymous": false,
      "inputs": [
        {
          "indexed": false,
          "internalType": "uint256",
          "name": "newPrice",
          "type": "uint256"
        },
        {
          "indexed": false,
          "internalType": "uint256",
          "name": "streamCount",
          "type": "uint256"
        }
      ],
      "name": "TokenPriceUpdated",
      "type": "event"
    },
    {
      "anonymous": false,
      "inputs": [
        {
          "indexed": true,
          "internalType": "address",
          "name": "from",
          "type": "address"
        },
        {
          "indexed": true,
          "internalType": "address",
          "name": "to",
          "type": "address"
        },
        {
          "indexed": false,
          "internalType": "uint256",
          "name": "value",
          "type": "uint256"
        }
      ],
      "name": "Transfer",
      "type": "event"
    },
    {
      "anonymous": false,
      "inputs": [
        {
          "indexed": false,
          "internalType": "address",
          "name": "account",
          "type": "address"
        }
      ],
      "name": "Unpaused",
      "type": "event"
    },
    {
      "anonymous": false,
      "inputs": [
        {
          "indexed": true,
          "internalType": "address",
          "name": "staker",
          "type": "address"
        },
        {
          "indexed": false,
          "internalType": "uint256",
          "name": "amount",
          "type": "uint256"
        }
      ],
      "name": "Unstaked",
      "type": "event"
    },
    {
      "inputs": [],
      "name": "ARTIST_ADDRESS",
      "outputs": [
        {
          "internalType": "address",
          "name": "",
          "type": "address"
        }
      ],
      "stateMutability": "view",
      "type": "function"
    },
    {
      "inputs": [],
      "name": "ARTIST_SHARE",
      "outputs": [
        {
          "internalType": "uint256",
          "name": "",
          "type": "uint256"
        }
      ],
      "stateMutability": "view",
      "type": "function"
    },
    {
      "inputs": [],
      "name": "BASIS_POINTS",
      "outputs": [
        {
          "internalType": "uint256",
          "name": "",
          "type": "uint256"
        }
      ],
      "stateMutability": "view",
      "type": "function"
    },
    {
      "inputs": [],
      "name": "MONTH",
      "outputs": [
        {
          "internalType": "uint256",
          "name": "",
          "type": "uint256"
        }
      ],
      "stateMutability": "view",
      "type": "function"
    },
    {
      "inputs": [],
      "name": "STAKERS_SHARE",
      "outputs": [
        {
          "internalType": "uint256",
          "name": "",
          "type": "uint256"
        }
      ],
      "stateMutability": "view",
      "type": "function"
    },
    {
      "inputs": [
        {
          "internalType": "address",
          "name": "owner",
          "type": "address"
        },
        {
          "internalType": "address",
          "name": "spender",
          "type": "address"
        }
      ],
      "name": "allowance",
      "outputs": [
        {
          "internalType": "uint256",
          "name": "",
          "type": "uint256"
        }
      ],
      "stateMutability": "view",
      "type": "function"
    },
    {
      "inputs": [
        {
          "internalType": "address",
          "name": "spender",
          "type": "address"
        },
        {
          "internalType": "uint256",
          "name": "amount",
          "type": "uint256"
        }
      ],
      "name": "approve",
      "outputs": [
        {
          "internalType": "bool",
          "name": "",
          "type": "bool"
        }
      ],
      "stateMutability": "nonpayable",
      "type": "function"
    },
    {
      "inputs": [],
      "name": "artistWithdraw",
      "outputs": [],
      "stateMutability": "nonpayable",
      "type": "function"
    },
    {
      "inputs": [],
      "name": "artistWithdrawableBalance",
      "outputs": [
        {
          "internalType": "uint256",
          "name": "",
          "type": "uint256"
        }
      ],
      "stateMutability": "view",
      "type": "function"
    },
    {
      "inputs": [
        {
          "internalType": "address",
          "name": "account",
          "type": "address"
        }
      ],
      "name": "balanceOf",
      "outputs": [
        {
          "internalType": "uint256",
          "name": "",
          "type": "uint256"
        }
      ],
      "stateMutability": "view",
      "type": "function"
    },
    {
      "inputs": [
        {
          "internalType": "address",
          "name": "account",
          "type": "address"
        },
        {
          "internalType": "uint256",
          "name": "snapshotId",
          "type": "uint256"
        }
      ],
      "name": "balanceOfAt",
      "outputs": [
        {
          "internalType": "uint256",
          "name": "",
          "type": "uint256"
        }
      ],
      "stateMutability": "view",
      "type": "function"
    },
    {
      "inputs": [],
      "name": "currentMonth",
      "outputs": [
        {
          "internalType": "uint256",
          "name": "",
          "type": "uint256"
        }
      ],
      "stateMutability": "view",
      "type": "function"
    },
    {
      "inputs": [],
      "name": "decimals",
      "outputs": [
        {
          "internalType": "uint8",
          "name": "",
          "type": "uint8"
        }
      ],
      "stateMutability": "view",
      "type": "function"
    },
    {
      "inputs": [
        {
          "internalType": "address",
          "name": "spender",
          "type": "address"
        },
        {
          "internalType": "uint256",
          "name": "subtractedValue",
          "type": "uint256"
        }
      ],
      "name": "decreaseAllowance",
      "outputs": [
        {
          "internalType": "bool",
          "name": "",
          "type": "bool"
        }
      ],
      "stateMutability": "nonpayable",
      "type": "function"
    },
    {
      "inputs": [],
      "name": "delegationManager",
      "outputs": [
        {
          "internalType": "contract IDelegationManager",
          "name": "",
          "type": "address"
        }
      ],
      "stateMutability": "view",
      "type": "function"
    },
    {
      "inputs": [
        {
          "internalType": "uint256",
          "name": "streamCount",
          "type": "uint256"
        }
      ],
      "name": "depositMonthlyRoyalties",
      "outputs": [],
      "stateMutability": "payable",
      "type": "function"
    },
    {
      "inputs": [],
      "name": "eigenStrategy",
      "outputs": [
        {
          "internalType": "contract IStrategy",
          "name": "",
          "type": "address"
        }
      ],
      "stateMutability": "view",
      "type": "function"
    },
    {
      "inputs": [],
      "name": "getCurrentPrice",
      "outputs": [
        {
          "internalType": "uint256",
          "name": "",
          "type": "uint256"
        }
      ],
      "stateMutability": "view",
      "type": "function"
    },
    {
      "inputs": [
        {
          "internalType": "uint256",
          "name": "monthIndex",
          "type": "uint256"
        }
      ],
      "name": "getMonthlyRoyalty",
      "outputs": [
        {
          "components": [
            {
              "internalType": "uint256",
              "name": "totalAmount",
              "type": "uint256"
            },
            {
              "internalType": "uint256",
              "name": "streamCount",
              "type": "uint256"
            },
            {
              "internalType": "uint256",
              "name": "timestamp",
              "type": "uint256"
            },
            {
              "internalType": "bool",
              "name": "distributed",
              "type": "bool"
            }
          ],
          "internalType": "struct SDToken.MonthlyRoyalty",
          "name": "",
          "type": "tuple"
        }
      ],
      "stateMutability": "view",
      "type": "function"
    },
    {
      "inputs": [
        {
          "internalType": "address",
          "name": "account",
          "type": "address"
        }
      ],
      "name": "getStakedBalance",
      "outputs": [
        {
          "internalType": "uint256",
          "name": "",
          "type": "uint256"
        }
      ],
      "stateMutability": "view",
      "type": "function"
    },
    {
      "inputs": [
        {
          "internalType": "uint256",
          "name": "index",
          "type": "uint256"
        }
      ],
      "name": "getStakerAtIndex",
      "outputs": [
        {
          "internalType": "address",
          "name": "",
          "type": "address"
        }
      ],
      "stateMutability": "view",
      "type": "function"
    },
    {
      "inputs": [],
      "name": "getStakersCount",
      "outputs": [
        {
          "internalType": "uint256",
          "name": "",
          "type": "uint256"
        }
      ],
      "stateMutability": "view",
      "type": "function"
    },
    {
      "inputs": [
        {
          "internalType": "address",
          "name": "spender",
          "type": "address"
        },
        {
          "internalType": "uint256",
          "name": "addedValue",
          "type": "uint256"
        }
      ],
      "name": "increaseAllowance",
      "outputs": [
        {
          "internalType": "bool",
          "name": "",
          "type": "bool"
        }
      ],
      "stateMutability": "nonpayable",
      "type": "function"
    },
    {
      "inputs": [
        {
          "internalType": "address",
          "name": "_eigenStrategy",
          "type": "address"
        },
        {
          "internalType": "address",
          "name": "_delegationManager",
          "type": "address"
        }
      ],
      "name": "initialize",
      "outputs": [],
      "stateMutability": "nonpayable",
      "type": "function"
    },
    {
      "inputs": [
        {
          "internalType": "uint256",
          "name": "",
          "type": "uint256"
        }
      ],
      "name": "monthlyRoyalties",
      "outputs": [
        {
          "internalType": "uint256",
          "name": "totalAmount",
          "type": "uint256"
        },
        {
          "internalType": "uint256",
          "name": "streamCount",
          "type": "uint256"
        },
        {
          "internalType": "uint256",
          "name": "timestamp",
          "type": "uint256"
        },
        {
          "internalType": "bool",
          "name": "distributed",
          "type": "bool"
        }
      ],
      "stateMutability": "view",
      "type": "function"
    },
    {
      "inputs": [],
      "name": "name",
      "outputs": [
        {
          "internalType": "string",
          "name": "",
          "type": "string"
        }
      ],
      "stateMutability": "view",
      "type": "function"
    },
    {
      "inputs": [
        {
          "internalType": "address",
          "name": "",
          "type": "address"
        }
      ],
      "name": "operators",
      "outputs": [
        {
          "internalType": "bool",
          "name": "",
          "type": "bool"
        }
      ],
      "stateMutability": "view",
      "type": "function"
    },
    {
      "inputs": [],
      "name": "owner",
      "outputs": [
        {
          "internalType": "address",
          "name": "",
          "type": "address"
        }
      ],
      "stateMutability": "view",
      "type": "function"
    },
    {
      "inputs": [],
      "name": "pause",
      "outputs": [],
      "stateMutability": "nonpayable",
      "type": "function"
    },
    {
      "inputs": [],
      "name": "paused",
      "outputs": [
        {
          "internalType": "bool",
          "name": "",
          "type": "bool"
        }
      ],
      "stateMutability": "view",
      "type": "function"
    },
    {
      "inputs": [],
      "name": "renounceOwnership",
      "outputs": [],
      "stateMutability": "nonpayable",
      "type": "function"
    },
    {
      "inputs": [
        {
          "internalType": "uint256",
          "name": "amount",
          "type": "uint256"
        }
      ],
      "name": "stake",
      "outputs": [],
      "stateMutability": "nonpayable",
      "type": "function"
    },
    {
      "inputs": [],
      "name": "symbol",
      "outputs": [
        {
          "internalType": "string",
          "name": "",
          "type": "string"
        }
      ],
      "stateMutability": "view",
      "type": "function"
    },
    {
      "inputs": [],
      "name": "tokenMetrics",
      "outputs": [
        {
          "internalType": "uint256",
          "name": "totalStreamCount",
          "type": "uint256"
        },
        {
          "internalType": "uint256",
          "name": "totalRoyalties",
          "type": "uint256"
        },
        {
          "internalType": "uint256",
          "name": "lastPriceUpdate",
          "type": "uint256"
        },
        {
          "internalType": "uint256",
          "name": "basePrice",
          "type": "uint256"
        }
      ],
      "stateMutability": "view",
      "type": "function"
    },
    {
      "inputs": [],
      "name": "totalSupply",
      "outputs": [
        {
          "internalType": "uint256",
          "name": "",
          "type": "uint256"
        }
      ],
      "stateMutability": "view",
      "type": "function"
    },
    {
      "inputs": [
        {
          "internalType": "uint256",
          "name": "snapshotId",
          "type": "uint256"
        }
      ],
      "name": "totalSupplyAt",
      "outputs": [
        {
          "internalType": "uint256",
          "name": "",
          "type": "uint256"
        }
      ],
      "stateMutability": "view",
      "type": "function"
    },
    {
      "inputs": [
        {
          "internalType": "address",
          "name": "to",
          "type": "address"
        },
        {
          "internalType": "uint256",
          "name": "amount",
          "type": "uint256"
        }
      ],
      "name": "transfer",
      "outputs": [
        {
          "internalType": "bool",
          "name": "",
          "type": "bool"
        }
      ],
      "stateMutability": "nonpayable",
      "type": "function"
    },
    {
      "inputs": [
        {
          "internalType": "address",
          "name": "from",
          "type": "address"
        },
        {
          "internalType": "address",
          "name": "to",
          "type": "address"
        },
        {
          "internalType": "uint256",
          "name": "amount",
          "type": "uint256"
        }
      ],
      "name": "transferFrom",
      "outputs": [
        {
          "internalType": "bool",
          "name": "",
          "type": "bool"
        }
      ],
      "stateMutability": "nonpayable",
      "type": "function"
    },
    {
      "inputs": [
        {
          "internalType": "address",
          "name": "newOwner",
          "type": "address"
        }
      ],
      "name": "transferOwnership",
      "outputs": [],
      "stateMutability": "nonpayable",
      "type": "function"
    },
    {
      "inputs": [],
      "name": "unpause",
      "outputs": [],
      "stateMutability": "nonpayable",
      "type": "function"
    },
    {
      "inputs": [
        {
          "internalType": "uint256",
          "name": "amount",
          "type": "uint256"
        }
      ],
      "name": "unstake",
      "outputs": [],
      "stateMutability": "nonpayable",
      "type": "function"
    },
    {
      "stateMutability": "payable",
      "type": "receive"
    }
  ],
  "bytecode": "0x60806040523480156200001157600080fd5b506040518060400160405280600981526020016829a5a5102a37b5b2b760b91b8152506040518060400160405280600381526020016229a5a560e91b8152508160039081620000619190620003f1565b506004620000708282620003f1565b5050506200008d62000087620000cb60201b60201c565b620000cf565b6001600a55600b805460ff19169055620000c5336012620000b090600a620005d2565b620000bf90620f4240620005ea565b62000121565b62000646565b3390565b600980546001600160a01b038381166001600160a01b0319831681179093556040519116919082907f8be0079c531659141344cd1fd0a4f28419497f9722a3daafe3b4186f6b6457e090600090a35050565b6001600160a01b0382166200017c5760405162461bcd60e51b815260206004820152601f60248201527f45524332303a206d696e7420746f20746865207a65726f206164647265737300604482015260640160405180910390fd5b6200018a60008383620001f5565b80600260008282546200019e919062000604565b90915550506001600160a01b038216600081815260208181526040808320805486019055518481527fddf252ad1be2c89b69c2b068fc378daa952ba7f163c4a11628f55a4df523b3ef910160405180910390a35050565b6200020283838362000207565b505050565b6001600160a01b0383166200022b57620002218262000256565b620002026200028e565b6001600160a01b0382166200024557620002218362000256565b620002508362000256565b62000202825b6001600160a01b038116600090815260056020908152604080832091839052909120546200028b9190620002a0565b620002a0565b50565b6200029e60066200028560025490565b565b6000620002ac620002ef565b905080620002ba8462000300565b101562000202578254600180820185556000858152602080822090930193909355938401805494850181558252902090910155565b6000620002fb60085490565b905090565b805460009081036200031457506000919050565b8154829062000326906001906200061a565b8154811062000339576200033962000630565b90600052602060002001549050919050565b634e487b7160e01b600052604160045260246000fd5b600181811c908216806200037657607f821691505b6020821081036200039757634e487b7160e01b600052602260045260246000fd5b50919050565b601f82111562000202576000816000526020600020601f850160051c81016020861015620003c85750805b601f850160051c820191505b81811015620003e957828155600101620003d4565b505050505050565b81516001600160401b038111156200040d576200040d6200034b565b62000425816200041e845462000361565b846200039d565b602080601f8311600181146200045d5760008415620004445750858301515b600019600386901b1c1916600185901b178555620003e9565b600085815260208120601f198616915b828110156200048e578886015182559484019460019091019084016200046d565b5085821015620004ad5787850151600019600388901b60f8161c191681555b5050505050600190811b01905550565b634e487b7160e01b600052601160045260246000fd5b600181815b8085111562000514578160001904821115620004f857620004f8620004bd565b808516156200050657918102915b93841c9390800290620004d8565b509250929050565b6000826200052d57506001620005cc565b816200053c57506000620005cc565b8160018114620005555760028114620005605762000580565b6001915050620005cc565b60ff841115620005745762000574620004bd565b50506001821b620005cc565b5060208310610133831016604e8410600b8410161715620005a5575081810a620005cc565b620005b18383620004d3565b8060001904821115620005c857620005c8620004bd565b0290505b92915050565b6000620005e360ff8416836200051c565b9392505050565b8082028115828204841417620005cc57620005cc620004bd565b80820180821115620005cc57620005cc620004bd565b81810381811115620005cc57620005cc620004bd565b634e487b7160e01b600052603260045260246000fd5b612b7b80620006566000396000f3fe60806040526004361061024a5760003560e01c806370a0823111610139578063a694fc3a116100b6578063dd62ed3e1161007a578063dd62ed3e1461074d578063e1f1c4a71461076d578063e406a6b914610782578063ea4d3c9b14610797578063eb91d37e146107b7578063f2fde38b146107cc57600080fd5b8063a694fc3a146106bc578063a9059cbb146106dc578063d5999a5c146106fc578063d8c7660614610713578063db4df7611461072857600080fd5b80638a8f048b116100fd5780638a8f048b146106345780638da5cb5b1461064957806395d89b4114610667578063981b24d01461067c578063a457c2d71461069c57600080fd5b806370a082311461057b578063715018a6146105b15780637ddaf3c8146105c65780638456cb5914610609578063862a4d471461061e57600080fd5b806339509351116101c7578063485cc9551161018b578063485cc955146104675780634ee2cd7e146104875780634fb26720146104a75780635c975abb1461050e5780635f099e0a1461052657600080fd5b806339509351146103d15780633a02a42d146103f15780633f4ba83a14610427578063433130771461043c578063482847891461045257600080fd5b80632099eaa71161020e5780632099eaa71461031557806323b872dd1461035557806329796290146103755780632e17de7814610395578063313ce567146103b557600080fd5b806306fdde0314610256578063095ea7b31461028157806313e7c9d8146102b157806318160ddd146102e15780632061b1811461030057600080fd5b3661025157005b600080fd5b34801561026257600080fd5b5061026b6107ec565b60405161027891906127f8565b60405180910390f35b34801561028d57600080fd5b506102a161029c366004612842565b61087e565b6040519015158152602001610278565b3480156102bd57600080fd5b506102a16102cc36600461286c565b60106020526000908152604090205460ff1681565b3480156102ed57600080fd5b506002545b604051908152602001610278565b61031361030e366004612887565b610898565b005b34801561032157600080fd5b5061033d73fb91a0dba31ba4d042886c2a0b3aa23bfb23f19681565b6040516001600160a01b039091168152602001610278565b34801561036157600080fd5b506102a16103703660046128a0565b610aae565b34801561038157600080fd5b5061033d610390366004612887565b610ad2565b3480156103a157600080fd5b506103136103b0366004612887565b610b4a565b3480156103c157600080fd5b5060405160128152602001610278565b3480156103dd57600080fd5b506102a16103ec366004612842565b610cee565b3480156103fd57600080fd5b506102f261040c36600461286c565b6001600160a01b03166000908152600d602052604090205490565b34801561043357600080fd5b50610313610d10565b34801561044857600080fd5b506102f260195481565b34801561045e57600080fd5b506017546102f2565b34801561047357600080fd5b506103136104823660046128dc565b610d22565b34801561049357600080fd5b506102f26104a2366004612842565b610e69565b3480156104b357600080fd5b506104ec6104c2366004612887565b600f6020526000908152604090208054600182015460028301546003909301549192909160ff1684565b6040805194855260208501939093529183015215156060820152608001610278565b34801561051a57600080fd5b50600b5460ff166102a1565b34801561053257600080fd5b50610546610541366004612887565b610ec2565b604051610278919081518152602080830151908201526040808301519082015260609182015115159181019190915260800190565b34801561058757600080fd5b506102f261059636600461286c565b6001600160a01b031660009081526020819052604090205490565b3480156105bd57600080fd5b50610313610f39565b3480156105d257600080fd5b506011546012546013546014546105e99392919084565b604080519485526020850193909352918301526060820152608001610278565b34801561061557600080fd5b50610313610f4b565b34801561062a57600080fd5b506102f260155481565b34801561064057600080fd5b506102f2601e81565b34801561065557600080fd5b506009546001600160a01b031661033d565b34801561067357600080fd5b5061026b610f5b565b34801561068857600080fd5b506102f2610697366004612887565b610f6a565b3480156106a857600080fd5b506102a16106b7366004612842565b610f95565b3480156106c857600080fd5b506103136106d7366004612887565b611010565b3480156106e857600080fd5b506102a16106f7366004612842565b6111c8565b34801561070857600080fd5b506102f262278d0081565b34801561071f57600080fd5b506103136111d6565b34801561073457600080fd5b50600b5461033d9061010090046001600160a01b031681565b34801561075957600080fd5b506102f26107683660046128dc565b611308565b34801561077957600080fd5b506102f2606481565b34801561078e57600080fd5b506102f2604681565b3480156107a357600080fd5b50600c5461033d906001600160a01b031681565b3480156107c357600080fd5b506014546102f2565b3480156107d857600080fd5b506103136107e736600461286c565b611333565b6060600380546107fb9061290f565b80601f01602080910402602001604051908101604052809291908181526020018280546108279061290f565b80156108745780601f1061084957610100808354040283529160200191610874565b820191906000526020600020905b81548152906001019060200180831161085757829003601f168201915b5050505050905090565b60003361088c8185856113a9565b60019150505b92915050565b6108a06114cd565b6108a8611527565b600034116108f15760405162461bcd60e51b8152602060048201526011602482015270139bc8199d5b991cc81c1c9bdd9a591959607a1b60448201526064015b60405180910390fd5b600081116109415760405162461bcd60e51b815260206004820152601d60248201527f53747265616d20636f756e74206d75737420626520706f73697469766500000060448201526064016108e8565b600061095062278d004261295f565b6000818152600f602052604090206003015490915060ff16156109b55760405162461bcd60e51b815260206004820152601760248201527f4d6f6e746820616c72656164792070726f63657373656400000000000000000060448201526064016108e8565b60408051608081018252348152602080820185815242838501908152600060608501818152878252600f9094529485209351845590516001840155516002830155516003909101805460ff191691151591909117905560118054849290610a1d908490612981565b909155505060128054349190600090610a37908490612981565b90915550610a4790508234611580565b610a4f6116fa565b5060115460125460405183927f82a8386590448d930e8b15efb96503ad5554a8d3c062cb86b2cdcc6f033b177b92610a8f92918252602082015260400190565b60405180910390a2610aa081611752565b50610aab6001600a55565b50565b600033610abc8582856118da565b610ac7858585611954565b506001949350505050565b6017546000908210610b1c5760405162461bcd60e51b8152602060048201526013602482015272496e646578206f7574206f6620626f756e647360681b60448201526064016108e8565b60178281548110610b2f57610b2f612994565b6000918252602090912001546001600160a01b031692915050565b610b52611527565b610b5a611b03565b336000908152600d6020526040902054811115610bb95760405162461bcd60e51b815260206004820152601b60248201527f496e73756666696369656e74207374616b65642062616c616e6365000000000060448201526064016108e8565b60008111610c095760405162461bcd60e51b815260206004820152601760248201527f43616e6e6f7420756e7374616b65203020746f6b656e7300000000000000000060448201526064016108e8565b610c116116fa565b50600b54604051632e1a7d4d60e01b8152600481018390526101009091046001600160a01b031690632e1a7d4d90602401600060405180830381600087803b158015610c5c57600080fd5b505af1158015610c70573d6000803e3d6000fd5b5050336000908152600d602052604081208054859450909250610c949084906129aa565b90915550610ca59050303383611954565b610cae33611b49565b60405181815233907f0f5bb82176feb1b5e747e28471aa92156a04d9f3ab9f45f28e2d704232b93f75906020015b60405180910390a2610aab6001600a55565b60003361088c818585610d018383611308565b610d0b9190612981565b6113a9565b610d186114cd565b610d20611d07565b565b610d2a6114cd565b6001600160a01b038216610d805760405162461bcd60e51b815260206004820152601860248201527f496e76616c69642073747261746567792061646472657373000000000000000060448201526064016108e8565b6001600160a01b038116610de15760405162461bcd60e51b815260206004820152602260248201527f496e76616c69642064656c65676174696f6e206d616e61676572206164647265604482015261737360f01b60648201526084016108e8565b600b8054610100600160a81b0319166101006001600160a01b038581169190910291909117909155600c80546001600160a01b031916918316919091179055670de0b6b3a7640000601455426013819055610e409062278d009061295f565b601555610e6533610e536012600a612a99565b610e6090620f4240612aa8565b611d59565b5050565b6001600160a01b038216600090815260056020526040812081908190610e90908590611e24565b9150915081610eb7576001600160a01b038516600090815260208190526040902054610eb9565b805b95945050505050565b610eef60405180608001604052806000815260200160008152602001600081526020016000151581525090565b506000908152600f602090815260409182902082516080810184528154815260018201549281019290925260028101549282019290925260039091015460ff161515606082015290565b610f416114cd565b610d206000611f20565b610f536114cd565b610d20611f72565b6060600480546107fb9061290f565b6000806000610f7a846006611e24565b9150915081610f8b57600254610f8d565b805b949350505050565b60003381610fa38286611308565b9050838110156110035760405162461bcd60e51b815260206004820152602560248201527f45524332303a2064656372656173656420616c6c6f77616e63652062656c6f77604482015264207a65726f60d81b60648201526084016108e8565b610ac782868684036113a9565b611018611527565b611020611b03565b336000908152602081905260409020548111156110765760405162461bcd60e51b8152602060048201526014602482015273496e73756666696369656e742062616c616e636560601b60448201526064016108e8565b600081116110be5760405162461bcd60e51b815260206004820152601560248201527443616e6e6f74207374616b65203020746f6b656e7360581b60448201526064016108e8565b6110c66116fa565b506110d2333083611954565b600b546110ef90309061010090046001600160a01b031683611faf565b600b5460405163b6b55f2560e01b8152600481018390526101009091046001600160a01b03169063b6b55f2590602401600060405180830381600087803b15801561113957600080fd5b505af115801561114d573d6000803e3d6000fd5b5050336000908152600d602052604081208054859450909250611171908490612981565b90915550503360009081526018602052604090205460ff1661119657611196336120e6565b60405181815233907f9e71bc8eea02a63969f509818f2dafb9254532904319f9dbda79b67bd34a5f3d90602001610cdc565b60003361088c818585611954565b3373fb91a0dba31ba4d042886c2a0b3aa23bfb23f196146112395760405162461bcd60e51b815260206004820152601860248201527f4f6e6c79206172746973742063616e207769746864726177000000000000000060448201526064016108e8565b6000601954116112805760405162461bcd60e51b81526020600482015260126024820152714e6f2066756e647320617661696c61626c6560701b60448201526064016108e8565b60198054600091829055604051909173fb91a0dba31ba4d042886c2a0b3aa23bfb23f1969183156108fc0291849190818181858888f193505050501580156112cc573d6000803e3d6000fd5b50604080518281524260208201527f5fb9b826e72f2ab0ba565750957eebc319e1ff6c3988f677e18b391839b7b5f3910160405180910390a150565b6001600160a01b03918216600090815260016020908152604080832093909416825291909152205490565b61133b6114cd565b6001600160a01b0381166113a05760405162461bcd60e51b815260206004820152602660248201527f4f776e61626c653a206e6577206f776e657220697320746865207a65726f206160448201526564647265737360d01b60648201526084016108e8565b610aab81611f20565b6001600160a01b03831661140b5760405162461bcd60e51b8152602060048201526024808201527f45524332303a20617070726f76652066726f6d20746865207a65726f206164646044820152637265737360e01b60648201526084016108e8565b6001600160a01b03821661146c5760405162461bcd60e51b815260206004820152602260248201527f45524332303a20617070726f766520746f20746865207a65726f206164647265604482015261737360f01b60648201526084016108e8565b6001600160a01b0383811660008181526001602090815260408083209487168084529482529182902085905590518481527f8c5be1e5ebec7d5bd14f71427d1e84f3dd0314c0f7b2291e5b200ac8c7c3b925910160405180910390a3505050565b6009546001600160a01b03163314610d205760405162461bcd60e51b815260206004820181905260248201527f4f776e61626c653a2063616c6c6572206973206e6f7420746865206f776e657260448201526064016108e8565b6002600a54036115795760405162461bcd60e51b815260206004820152601f60248201527f5265656e7472616e637947756172643a207265656e7472616e742063616c6c0060448201526064016108e8565b6002600a55565b60135460009061159090426129aa565b905062278d0081106116f5576011546000906115b8576b06765c793fa10079d00000006115e5565b6011546115cd85670de0b6b3a7640000612aa8565b6115db90633b9aca00612aa8565b6115e5919061295f565b905060008060116001015411611607576b06765c793fa10079d0000000611634565b60125461161c85670de0b6b3a7640000612aa8565b61162a90633b9aca00612aa8565b611634919061295f565b9050600060026116448385612981565b61164e919061295f565b90506b033b2e3c9fd0803ce8000000811115611692576014546b033b2e3c9fd0803ce800000090611680908390612aa8565b61168a919061295f565b6014556116b1565b601454600a906116a390600b612aa8565b6116ad919061295f565b6014555b4260135560145460408051918252602082018890527fd9cc159fa79112d02593601db522a6696e6c5c82d9e9ca9332f89ec824935bb0910160405180910390a15050505b505050565b601680546000918261170b83612abf565b91905055507f8030e83b04d87bef53480e26263266d6ca66863aa8506aca6f2559d18aa1cb6760165460405161174391815260200190565b60405180910390a15060165490565b6000818152600f60205260409020600381015460ff16156117ab5760405162461bcd60e51b8152602060048201526013602482015272105b1c9958591e48191a5cdd1c9a589d5d1959606a1b60448201526064016108e8565b60006064604683600001546117c09190612aa8565b6117ca919061295f565b905060008183600001546117de91906129aa565b905081601960008282546117f29190612981565b925050819055506000600b60019054906101000a90046001600160a01b03166001600160a01b0316633a98ef396040518163ffffffff1660e01b8152600401602060405180830381865afa15801561184e573d6000803e3d6000fd5b505050506040513d601f19601f820116820180604052508101906118729190612ad8565b90508015611883576118838261216c565b60038401805460ff1916600117905560408051848152602081018490529081018690527f92c99e401ef01ae0170c8c2e14de1a872383119a766b191a295ec7f5dd90bba79060600160405180910390a15050505050565b60006118e68484611308565b9050600019811461194e57818110156119415760405162461bcd60e51b815260206004820152601d60248201527f45524332303a20696e73756666696369656e7420616c6c6f77616e636500000060448201526064016108e8565b61194e84848484036113a9565b50505050565b6001600160a01b0383166119b85760405162461bcd60e51b815260206004820152602560248201527f45524332303a207472616e736665722066726f6d20746865207a65726f206164604482015264647265737360d81b60648201526084016108e8565b6001600160a01b038216611a1a5760405162461bcd60e51b815260206004820152602360248201527f45524332303a207472616e7366657220746f20746865207a65726f206164647260448201526265737360e81b60648201526084016108e8565b611a25838383612323565b6001600160a01b03831660009081526020819052604090205481811015611a9d5760405162461bcd60e51b815260206004820152602660248201527f45524332303a207472616e7366657220616d6f756e7420657863656564732062604482015265616c616e636560d01b60648201526084016108e8565b6001600160a01b03848116600081815260208181526040808320878703905593871680835291849020805487019055925185815290927fddf252ad1be2c89b69c2b068fc378daa952ba7f163c4a11628f55a4df523b3ef910160405180910390a361194e565b600b5460ff1615610d205760405162461bcd60e51b815260206004820152601060248201526f14185d5cd8589b194e881c185d5cd95960821b60448201526064016108e8565b600b5460405163673e156160e11b81526001600160a01b0383811660048301526000926101009004169063ce7c2ac290602401602060405180830381865afa158015611b99573d6000803e3d6000fd5b505050506040513d601f19601f82011682018060405250810190611bbd9190612ad8565b6001600160a01b03831660009081526018602052604090205490915060ff168015611be6575080155b15610e65576001600160a01b0382166000908152601860205260408120805460ff191690555b6017548110156116f557826001600160a01b031660178281548110611c3357611c33612994565b6000918252602090912001546001600160a01b031603611cff5760178054611c5d906001906129aa565b81548110611c6d57611c6d612994565b600091825260209091200154601780546001600160a01b039092169183908110611c9957611c99612994565b9060005260206000200160006101000a8154816001600160a01b0302191690836001600160a01b031602179055506017805480611cd857611cd8612af1565b600082815260209020810160001990810180546001600160a01b0319169055019055505050565b600101611c0c565b611d0f61232e565b600b805460ff191690557f5db9ee0a495bf2e6ff9c91a7834c1ba4fdd244a5e8aa4e537bd38aeae4b073aa335b6040516001600160a01b03909116815260200160405180910390a1565b6001600160a01b038216611daf5760405162461bcd60e51b815260206004820152601f60248201527f45524332303a206d696e7420746f20746865207a65726f20616464726573730060448201526064016108e8565b611dbb60008383612323565b8060026000828254611dcd9190612981565b90915550506001600160a01b038216600081815260208181526040808320805486019055518481527fddf252ad1be2c89b69c2b068fc378daa952ba7f163c4a11628f55a4df523b3ef910160405180910390a35050565b60008060008411611e705760405162461bcd60e51b815260206004820152601660248201527504552433230536e617073686f743a20696420697320360541b60448201526064016108e8565b611e78612377565b841115611ec75760405162461bcd60e51b815260206004820152601d60248201527f4552433230536e617073686f743a206e6f6e6578697374656e7420696400000060448201526064016108e8565b6000611ed38486612387565b84549091508103611eeb576000809250925050611f19565b6001846001018281548110611f0257611f02612994565b90600052602060002001549250925050611f19565b505b9250929050565b600980546001600160a01b038381166001600160a01b0319831681179093556040519116919082907f8be0079c531659141344cd1fd0a4f28419497f9722a3daafe3b4186f6b6457e090600090a35050565b611f7a611b03565b600b805460ff191660011790557f62e78cea01bee320cd4e420270b5ea74000d11b0c9f74754ebdbfc544b05a258611d3c3390565b8015806120295750604051636eb1769f60e11b81523060048201526001600160a01b03838116602483015284169063dd62ed3e90604401602060405180830381865afa158015612003573d6000803e3d6000fd5b505050506040513d601f19601f820116820180604052508101906120279190612ad8565b155b6120945760405162461bcd60e51b815260206004820152603660248201527f5361666545524332303a20617070726f76652066726f6d206e6f6e2d7a65726f60448201527520746f206e6f6e2d7a65726f20616c6c6f77616e636560501b60648201526084016108e8565b604080516001600160a01b038416602482015260448082018490528251808303909101815260649091019091526020810180516001600160e01b031663095ea7b360e01b1790526116f5908490612434565b6001600160a01b03811660009081526018602052604090205460ff16610aab576001600160a01b03166000818152601860205260408120805460ff191660019081179091556017805491820181559091527fc624b66cc0138b8fabc209247f72d758e1cf3343756d543badbf24212bed8c150180546001600160a01b0319169091179055565b6000600b60019054906101000a90046001600160a01b03166001600160a01b0316633a98ef396040518163ffffffff1660e01b8152600401602060405180830381865afa1580156121c1573d6000803e3d6000fd5b505050506040513d601f19601f820116820180604052508101906121e59190612ad8565b9050600081116122375760405162461bcd60e51b815260206004820152601a60248201527f4e6f207374616b657320746f206469737472696275746520746f00000000000060448201526064016108e8565b60005b6017548110156116f557600061224f82610ad2565b600b5460405163673e156160e11b81526001600160a01b0380841660048301529293506000926101009092049091169063ce7c2ac290602401602060405180830381865afa1580156122a5573d6000803e3d6000fd5b505050506040513d601f19601f820116820180604052508101906122c99190612ad8565b90506000846122d88388612aa8565b6122e2919061295f565b6001600160a01b0384166000908152600e602052604081208054929350839290919061230f908490612981565b90915550506001909301925061223a915050565b6116f5838383612509565b600b5460ff16610d205760405162461bcd60e51b815260206004820152601460248201527314185d5cd8589b194e881b9bdd081c185d5cd95960621b60448201526064016108e8565b600061238260085490565b905090565b8154600090810361239a57506000610892565b82546000905b808210156123e75760006123b48383612551565b600087815260209020909150859082015411156123d3578091506123e1565b6123de816001612981565b92505b506123a0565b600082118015612413575083612410866124026001866129aa565b600091825260209091200190565b54145b1561242c576124236001836129aa565b92505050610892565b509050610892565b6000612489826040518060400160405280602081526020017f5361666545524332303a206c6f772d6c6576656c2063616c6c206661696c6564815250856001600160a01b03166125739092919063ffffffff16565b90508051600014806124aa5750808060200190518101906124aa9190612b07565b6116f55760405162461bcd60e51b815260206004820152602a60248201527f5361666545524332303a204552433230206f7065726174696f6e20646964206e6044820152691bdd081cdd58d8d9595960b21b60648201526084016108e8565b6001600160a01b0383166125285761252082612582565b6116f56125b4565b6001600160a01b03821661253f5761252083612582565b61254883612582565b6116f582612582565b6000612560600284841861295f565b61256c90848416612981565b9392505050565b6060610f8d84846000856125c2565b6001600160a01b03811660009081526005602090815260408083209183905290912054610aab919061269d565b61269d565b610d2060066125af60025490565b6060824710156126235760405162461bcd60e51b815260206004820152602660248201527f416464726573733a20696e73756666696369656e742062616c616e636520666f6044820152651c8818d85b1b60d21b60648201526084016108e8565b600080866001600160a01b0316858760405161263f9190612b29565b60006040518083038185875af1925050503d806000811461267c576040519150601f19603f3d011682016040523d82523d6000602084013e612681565b606091505b5091509150612692878383876126e7565b979650505050505050565b60006126a7612377565b9050806126b384612760565b10156116f5578254600180820185556000858152602080822090930193909355938401805494850181558252902090910155565b6060831561275657825160000361274f576001600160a01b0385163b61274f5760405162461bcd60e51b815260206004820152601d60248201527f416464726573733a2063616c6c20746f206e6f6e2d636f6e747261637400000060448201526064016108e8565b5081610f8d565b610f8d83836127aa565b8054600090810361277357506000919050565b81548290612783906001906129aa565b8154811061279357612793612994565b90600052602060002001549050919050565b919050565b8151156127ba5781518083602001fd5b8060405162461bcd60e51b81526004016108e891906127f8565b60005b838110156127ef5781810151838201526020016127d7565b50506000910152565b60208152600082518060208401526128178160408501602087016127d4565b601f01601f19169190910160400192915050565b80356001600160a01b03811681146127a557600080fd5b6000806040838503121561285557600080fd5b61285e8361282b565b946020939093013593505050565b60006020828403121561287e57600080fd5b61256c8261282b565b60006020828403121561289957600080fd5b5035919050565b6000806000606084860312156128b557600080fd5b6128be8461282b565b92506128cc6020850161282b565b9150604084013590509250925092565b600080604083850312156128ef57600080fd5b6128f88361282b565b91506129066020840161282b565b90509250929050565b600181811c9082168061292357607f821691505b60208210810361294357634e487b7160e01b600052602260045260246000fd5b50919050565b634e487b7160e01b600052601160045260246000fd5b60008261297c57634e487b7160e01b600052601260045260246000fd5b500490565b8082018082111561089257610892612949565b634e487b7160e01b600052603260045260246000fd5b8181038181111561089257610892612949565b600181815b80851115611f175781600019048211156129de576129de612949565b808516156129eb57918102915b93841c93908002906129c2565b600082612a0757506001610892565b81612a1457506000610892565b8160018114612a2a5760028114612a3457612a50565b6001915050610892565b60ff841115612a4557612a45612949565b50506001821b610892565b5060208310610133831016604e8410600b8410161715612a73575081810a610892565b612a7d83836129bd565b8060001904821115612a9157612a91612949565b029392505050565b600061256c60ff8416836129f8565b808202811582820484141761089257610892612949565b600060018201612ad157612ad1612949565b5060010190565b600060208284031215612aea57600080fd5b5051919050565b634e487b7160e01b600052603160045260246000fd5b600060208284031215612b1957600080fd5b8151801515811461256c57600080fd5b60008251612b3b8184602087016127d4565b919091019291505056fea2646970667358221220acb5bcffbcaea3a49be20bfd53b6719ea184f9fcfc6d17464341ff5b2dfc474d64736f6c63430008180033",
  "linkReferences": {},
  "deployedLinkReferences": {}
}